{
	"_format": "hh-sol-artifact-1",
	"contractName": "Governance",
	"sourceName": "contracts/governance.sol",
	"abi": [
		{
			"inputs": [
				{
					"internalType": "address",
					"name": "kdtAddress",
					"type": "address"
				},
				{
					"internalType": "uint256",
					"name": "_quorum",
					"type": "uint256"
				}
			],
			"stateMutability": "nonpayable",
			"type": "constructor"
		},
		{
			"inputs": [
				{
					"internalType": "string",
					"name": "_description",
					"type": "string"
				}
			],
			"name": "createProposal",
			"outputs": [],
			"stateMutability": "nonpayable",
			"type": "function"
		},
		{
			"inputs": [
				{
					"internalType": "uint256",
					"name": "_proposalId",
					"type": "uint256"
				}
			],
			"name": "executeProposal",
			"outputs": [],
			"stateMutability": "nonpayable",
			"type": "function"
		},
		{
			"inputs": [],
			"name": "kdt",
			"outputs": [
				{
					"internalType": "contract IKDT",
					"name": "",
					"type": "address"
				}
			],
			"stateMutability": "view",
			"type": "function"
		},
		{
			"inputs": [],
			"name": "proposalCount",
			"outputs": [
				{
					"internalType": "uint256",
					"name": "",
					"type": "uint256"
				}
			],
			"stateMutability": "view",
			"type": "function"
		},
		{
			"inputs": [
				{
					"internalType": "uint256",
					"name": "",
					"type": "uint256"
				}
			],
			"name": "proposals",
			"outputs": [
				{
					"internalType": "uint256",
					"name": "id",
					"type": "uint256"
				},
				{
					"internalType": "string",
					"name": "description",
					"type": "string"
				},
				{
					"internalType": "uint256",
					"name": "votesFor",
					"type": "uint256"
				},
				{
					"internalType": "uint256",
					"name": "votesAgainst",
					"type": "uint256"
				},
				{
					"internalType": "bool",
					"name": "executed",
					"type": "bool"
				}
			],
			"stateMutability": "view",
			"type": "function"
		},
		{
			"inputs": [],
			"name": "quorum",
			"outputs": [
				{
					"internalType": "uint256",
					"name": "",
					"type": "uint256"
				}
			],
			"stateMutability": "view",
			"type": "function"
		},
		{
			"inputs": [
				{
					"internalType": "uint256",
					"name": "_proposalId",
					"type": "uint256"
				},
				{
					"internalType": "bool",
					"name": "support",
					"type": "bool"
				}
			],
			"name": "vote",
			"outputs": [],
			"stateMutability": "nonpayable",
			"type": "function"
		}
	],
	"bytecode": "0x608060405234801561001057600080fd5b5060405161116338038061116383398181016040528101906100329190610119565b816000806101000a81548173ffffffffffffffffffffffffffffffffffffffff021916908373ffffffffffffffffffffffffffffffffffffffff160217905550806001819055505050610159565b600080fd5b600073ffffffffffffffffffffffffffffffffffffffff82169050919050565b60006100b082610085565b9050919050565b6100c0816100a5565b81146100cb57600080fd5b50565b6000815190506100dd816100b7565b92915050565b6000819050919050565b6100f6816100e3565b811461010157600080fd5b50565b600081519050610113816100ed565b92915050565b600080604083850312156101305761012f610080565b5b600061013e858286016100ce565b925050602061014f85828601610104565b9150509250929050565b610ffb806101686000396000f3fe608060405234801561001057600080fd5b506004361061007d5760003560e01c806321d7b6991161005b57806321d7b699146100f057806349c2a1a61461010e578063c9d27afe1461012a578063da35c664146101465761007d565b8063013cf08b146100825780630d61b519146100b65780631703a018146100d2575b600080fd5b61009c60048036038101906100979190610638565b610164565b6040516100ad95949392919061071f565b60405180910390f35b6100d060048036038101906100cb9190610638565b61022f565b005b6100da610311565b6040516100e79190610779565b60405180910390f35b6100f8610317565b6040516101059190610813565b60405180910390f35b61012860048036038101906101239190610963565b61033b565b005b610144600480360381019061013f91906109d8565b6103be565b005b61014e6105e8565b60405161015b9190610779565b60405180910390f35b600360205280600052604060002060009150905080600001549080600101805461018d90610a47565b80601f01602080910402602001604051908101604052809291908181526020018280546101b990610a47565b80156102065780601f106101db57610100808354040283529160200191610206565b820191906000526020600020905b8154815290600101906020018083116101e957829003601f168201915b5050505050908060020154908060030154908060040160009054906101000a900460ff16905085565b60006003600083815260200190815260200160002090506001548160030154826002015461025d9190610aa7565b101561029e576040517f08c379a000000000000000000000000000000000000000000000000000000000815260040161029590610b27565b60405180910390fd5b8060040160009054906101000a900460ff16156102f0576040517f08c379a00000000000000000000000000000000000000000000000000000000081526004016102e790610b93565b60405180910390fd5b60018160040160006101000a81548160ff0219169083151502179055505050565b60015481565b60008054906101000a900473ffffffffffffffffffffffffffffffffffffffff1681565b6002600081548092919061034e90610bb3565b9190505550600060036000600254815260200190815260200160002090506002548160000181905550818160010190816103889190610d9d565b50600081600201819055506000816003018190555060008160040160006101000a81548160ff0219169083151502179055505050565b60006003600084815260200190815260200160002090508060050160003373ffffffffffffffffffffffffffffffffffffffff1673ffffffffffffffffffffffffffffffffffffffff16815260200190815260200160002060009054906101000a900460ff1615610464576040517f08c379a000000000000000000000000000000000000000000000000000000000815260040161045b90610ebb565b60405180910390fd5b60008060009054906101000a900473ffffffffffffffffffffffffffffffffffffffff1673ffffffffffffffffffffffffffffffffffffffff166370a08231336040518263ffffffff1660e01b81526004016104c09190610efc565b602060405180830381865afa1580156104dd573d6000803e3d6000fd5b505050506040513d601f19601f820116820180604052508101906105019190610f2c565b905060008111610546576040517f08c379a000000000000000000000000000000000000000000000000000000000815260040161053d90610fa5565b60405180910390fd5b821561056c57808260020160008282546105609190610aa7565b92505081905550610588565b808260030160008282546105809190610aa7565b925050819055505b60018260050160003373ffffffffffffffffffffffffffffffffffffffff1673ffffffffffffffffffffffffffffffffffffffff16815260200190815260200160002060006101000a81548160ff02191690831515021790555050505050565b60025481565b6000604051905090565b600080fd5b600080fd5b6000819050919050565b61061581610602565b811461062057600080fd5b50565b6000813590506106328161060c565b92915050565b60006020828403121561064e5761064d6105f8565b5b600061065c84828501610623565b91505092915050565b61066e81610602565b82525050565b600081519050919050565b600082825260208201905092915050565b60005b838110156106ae578082015181840152602081019050610693565b60008484015250505050565b6000601f19601f8301169050919050565b60006106d682610674565b6106e0818561067f565b93506106f0818560208601610690565b6106f9816106ba565b840191505092915050565b60008115159050919050565b61071981610704565b82525050565b600060a0820190506107346000830188610665565b818103602083015261074681876106cb565b90506107556040830186610665565b6107626060830185610665565b61076f6080830184610710565b9695505050505050565b600060208201905061078e6000830184610665565b92915050565b600073ffffffffffffffffffffffffffffffffffffffff82169050919050565b6000819050919050565b60006107d96107d46107cf84610794565b6107b4565b610794565b9050919050565b60006107eb826107be565b9050919050565b60006107fd826107e0565b9050919050565b61080d816107f2565b82525050565b60006020820190506108286000830184610804565b92915050565b600080fd5b600080fd5b7f4e487b7100000000000000000000000000000000000000000000000000000000600052604160045260246000fd5b610870826106ba565b810181811067ffffffffffffffff8211171561088f5761088e610838565b5b80604052505050565b60006108a26105ee565b90506108ae8282610867565b919050565b600067ffffffffffffffff8211156108ce576108cd610838565b5b6108d7826106ba565b9050602081019050919050565b82818337600083830152505050565b6000610906610901846108b3565b610898565b90508281526020810184848401111561092257610921610833565b5b61092d8482856108e4565b509392505050565b600082601f83011261094a5761094961082e565b5b813561095a8482602086016108f3565b91505092915050565b600060208284031215610979576109786105f8565b5b600082013567ffffffffffffffff811115610997576109966105fd565b5b6109a384828501610935565b91505092915050565b6109b581610704565b81146109c057600080fd5b50565b6000813590506109d2816109ac565b92915050565b600080604083850312156109ef576109ee6105f8565b5b60006109fd85828601610623565b9250506020610a0e858286016109c3565b9150509250929050565b7f4e487b7100000000000000000000000000000000000000000000000000000000600052602260045260246000fd5b60006002820490506001821680610a5f57607f821691505b602082108103610a7257610a71610a18565b5b50919050565b7f4e487b7100000000000000000000000000000000000000000000000000000000600052601160045260246000fd5b6000610ab282610602565b9150610abd83610602565b9250828201905080821115610ad557610ad4610a78565b5b92915050565b7f51756f72756d206e6f74206d6574000000000000000000000000000000000000600082015250565b6000610b11600e8361067f565b9150610b1c82610adb565b602082019050919050565b60006020820190508181036000830152610b4081610b04565b9050919050565b7f416c726561647920657865637574656400000000000000000000000000000000600082015250565b6000610b7d60108361067f565b9150610b8882610b47565b602082019050919050565b60006020820190508181036000830152610bac81610b70565b9050919050565b6000610bbe82610602565b91507fffffffffffffffffffffffffffffffffffffffffffffffffffffffffffffffff8203610bf057610bef610a78565b5b600182019050919050565b60008190508160005260206000209050919050565b60006020601f8301049050919050565b600082821b905092915050565b600060088302610c5d7fffffffffffffffffffffffffffffffffffffffffffffffffffffffffffffffff82610c20565b610c678683610c20565b95508019841693508086168417925050509392505050565b6000610c9a610c95610c9084610602565b6107b4565b610602565b9050919050565b6000819050919050565b610cb483610c7f565b610cc8610cc082610ca1565b848454610c2d565b825550505050565b600090565b610cdd610cd0565b610ce8818484610cab565b505050565b5b81811015610d0c57610d01600082610cd5565b600181019050610cee565b5050565b601f821115610d5157610d2281610bfb565b610d2b84610c10565b81016020851015610d3a578190505b610d4e610d4685610c10565b830182610ced565b50505b505050565b600082821c905092915050565b6000610d7460001984600802610d56565b1980831691505092915050565b6000610d8d8383610d63565b9150826002028217905092915050565b610da682610674565b67ffffffffffffffff811115610dbf57610dbe610838565b5b610dc98254610a47565b610dd4828285610d10565b600060209050601f831160018114610e075760008415610df5578287015190505b610dff8582610d81565b865550610e67565b601f198416610e1586610bfb565b60005b82811015610e3d57848901518255600182019150602085019450602081019050610e18565b86831015610e5a5784890151610e56601f891682610d63565b8355505b6001600288020188555050505b505050505050565b7f416c726561647920766f74656400000000000000000000000000000000000000600082015250565b6000610ea5600d8361067f565b9150610eb082610e6f565b602082019050919050565b60006020820190508181036000830152610ed481610e98565b9050919050565b6000610ee682610794565b9050919050565b610ef681610edb565b82525050565b6000602082019050610f116000830184610eed565b92915050565b600081519050610f268161060c565b92915050565b600060208284031215610f4257610f416105f8565b5b6000610f5084828501610f17565b91505092915050565b7f4d75737420686f6c64204b445420746f20766f74650000000000000000000000600082015250565b6000610f8f60158361067f565b9150610f9a82610f59565b602082019050919050565b60006020820190508181036000830152610fbe81610f82565b905091905056fea2646970667358221220ffa452aa1cc0bc23868b4c298afb3904ba0f7e760414dabb69d4a07ee91929c764736f6c634300081c0033",
	"linkReferences": {},
	"deployedLinkReferences": {}
}